S00B00005254432E7372656330
S11300000C942A000C9447000C9447000C9447006D
S11300100C9447000C9447000C9447000C94470040
S11300200C9447000C9447000C9447000C94470030
S11300300C9447000C9447000C9447000C94470020
S11300400C9447000C9447000C9447000C94470010
S11300500C94470011241FBECFE5D8E0DEBFCDBF0E
S113006010E0A0E6B0E0E2E2FBE002C005900D92F1
S1130070AC3FB107D9F720E0ACEFB0E001C01D926E
S1130080AE3FB207E1F70E9411050C948F050C9462
S11300900000982F907F92BB909A929AE9EFF0E03B
S11300A03197F1F700C0000092989098E9EFF0E0E2
S11300B03197F1F700C00000F0E18F9FC0011124D7
S11300C082BB909A929A89EF90E00197F1F700C071
S11300D0000092989098E9EFF0E03197F1F700C0B2
S11300E000000895982F907F92BB929AE9EFF0E078
S11300F03197F1F700C000009298E9EFF0E03197F2
S1130100F1F700C00000F0E18F9FC001112482BB11
S1130110929A89EF90E00197F1F700C0000092985D
S1130120E9EFF0E03197F1F700C00000089585EAA7
S11301309EE00197F1F700C0000012BA12BA81B331
S1130140806F81BB81B3876081BB80E382BB929A5D
S1130150E9EFF0E03197F1F700C000009298E9EF81
S1130160F0E03197F1F700C0000082BB929A89EF6A
S113017090E00197F1F700C000009298E9EFF0E0F9
S11301803197F1F700C0000080E282BB929A89EFB8
S113019090E00197F1F700C000009298E9EFF0E0D9
S11301A03197F1F700C0000088E20E9472008CE0F1
S11301B00E947200089581E00E94720008956230E6
S11301C031F0633031F0613029F4805C03C08C5E1F
S11301D001C08C5A80680E9472000895CF92DF9209
S11301E0EF92FF920F931F93CF93DF936C01862FAF
S11301F0642F0E94DF00F60101900020E9F7319797
S11302008F010C191D09F02E88E0801718F40111D4
S11302100EC02CC0002369F1EC2CCC2DDD2D89916E
S11302200E9449008C2F8E198F15C8F322C0EC2C24
S1130230CC2DDD2D89910E9449008C2F8E198F15AC
S1130240C8F3EFEFE00FF0E03196E601CE0FDF1FC9
S113025080EC0E94720080E18F1558F410E18991BE
S11302600E9449001F5FF112FACF03C080EC0E9484
S11302707200DF91CF911F910F91FF90EF90DF906B
S1130280CF90089582E080B981B1836081B986B747
S1130290846086BF089584EA86BF06B607FEFDCF54
S11302A0089584E986BF06B604FCFDCF089583B99A
S11302B084E886BF06B607FEFDCF81B1887F88310A
S11302C059F081B1887F883249F091B1987F81E0FB
S11302D0903429F080E0089581E0089581E0089544
S11302E0FC01662321F096B7906496BF03C096B7CD
S11302F09F7B96BF96B7906896BF06B607FEFDCF64
S113030091B1987F983521F091B1987F903521F47F
S113031083B1808381E0089580E008950F931F9353
S1130320CF93C82F8B010E944B0180ED0E9457018F
S11303308823B1F08C2F0E945701882399F00E94E2
S11303404B0181ED0E945701882371F060E0C801E0
S11303500E947001882351F00E94510181E007C07E
S113036080E005C080E003C080E001C080E0CF9160
S11303701F910F910895CF93DF93C82FD62F0E941A
S11303804B0180ED0E945701882371F08C2F0E944D
S11303905701882359F08D2F0E945701882341F07B
S11303A00E94510181E005C080E003C080E001C0EB
S11303B080E0DF91CF910895CF93DF931F92CDB763
S11303C0DEB70E944201BE016F5F7F4F80E00E9452
S11303D08E01982F8823E1F069816F77698380E02B
S11303E00E94BB01982F882399F0BE016F5F7F4F55
S11303F082E00E948E01982F882351F06981606405
S1130400698382E00E94BB0191E0811101C090E008
S1130410892F0F90DF91CF910895CF93DF931F928F
S1130420CDB7DEB7BE016F5F7F4F81E00E948E01C2
S11304309981892F8077869586958695282F220F16
S1130440220F820F9F70890F0F90DF91CF91089533
S1130450CF93DF931F92CDB7DEB7BE016F5F7F4F9F
S113046082E00E948E01998194FB882780F9880F8D
S1130470282F220F220F820F9F70890F0F90DF9178
S1130480CF910895CF93DF931F92CDB7DEB7BE010E
S11304906F5F7F4F82E00E948E018981807290E0BD
S11304A09595879595958795959587959595879530
S11304B00F90DF91CF9108959DEC899F912D112488
S11304C096959695969520E1929FB0011124990FE7
S11304D0292F220F220F920F891B682B81E00E9483
S11304E0BB010895CF93C82F0E9442029DECC99F7F
S11304F0912D112496959695969540E1949F90019F
S11305001124990F392F330F330F930FC91B2C2B41
S1130510811103C0622F606402C0622F606682E0B2
S11305200E94BB01CF9108951F93CF93DF931F9235
S1130530CDB7DEB7182FBE016F5F7F4F82E00E94F8
S11305408E01112321F089818062898303C089810E
S11305508F7D8983698182E00E94BB010F90DF91C6
S1130560CF911F9108950F931F93CF93DF931F9201
S1130570CDB7DEB78C01BE016F5F7F4F80E00E9474
S11305808E01882309F444C0F80113868DE4828720
S113059080E280878981982F9F70905D9783807710
S11305A082958F70805D86838AE38583BE016F5F49
S11305B07F4F81E00E948E01882351F18981982F19
S11305C09F70905DF8019483807782958F70805D31
S11305D083838AE38283BE016F5F7F4F82E00E9440
S11305E08E018823A9F08981982F9F70905DF8016E
S11305F0918384FB992790F9905D908385FF04C0D3
S113060080E5818781E004C081E4F801818781E08D
S11306100F90DF91CF911F910F9108959DEC899FC9
S1130620912D112496959695969520E1929FB0016F
S11306301124990F292F220F220F920F891B682B47
S113064084E00E94BB0108959DEC899F912D1124A3
S113065096959695969520E1929FB0011124990F55
S1130660292F220F220F920F891B682B85E00E94ED
S1130670BB0108959DEC899F912D11249695969523
S1130680969520E1929FB0011124990F292F220FF2
S1130690220F920F891B682B86E00E94BB010895EC
S11306A08EEF8BBB00C089B3807F803E49F0803DD4
S11306B051F0803B59F0803761F422E030E00BC008
S11306C021E030E008C02CE030E005C023E030E059
S11306D002C02FEF30E08DEF8BBB00C099B3907F49
S11306E0903E49F0903D51F0903B59F0903759F4C9
S11306F025E030E008C024E030E005C02DE030E023
S113070002C026E030E08BEF8BBB00C099B3907F32
S1130710903E49F0903D51F0903B59F0903759F498
S113072028E030E008C027E030E005C02EE030E0EB
S113073002C029E030E087EF8BBB00C099B3907F03
S1130740903E49F0903D51F0903B59F0903759F468
S113075020E030E008C02AE030E005C02FE030E0BF
S113076002C02BE030E0C9010895CF92DF92EF92EE
S1130770FF920F931F93CF93DF9300D000D0CDB798
S1130780DEB76C01E12CF12C00E010E053C00E94B4
S113079050038F3F9105D9F30130110571F024F412
S11307A00115110541F032C002301105A1F00330EA
S11307B01105F9F02BC07C0129C09701220F331FCA
S11307C0EE0CFF1CEE0CFF1CEE0CFF1CE20EF31EE5
S11307D0E80EF91E1BC09701220F331FEE0CFF1CFD
S11307E0EE0CFF1CEE0CFF1CE20EF31EE80EF91ECD
S11307F00DC09701220F331FEE0CFF1CEE0CFF1CE3
S1130800EE0CFF1CE20EF31EE80EF91E4AE0BE01D8
S11308106F5F7F4F0E945A0541E0602FCE01019621
S11308200E94EE008FE493EC0197F1F700C0000002
S11308300F5F1F4F0C151D050CF4A9CFC7010F90B6
S11308400F900F900F90DF91CF911F910F91FF9018
S1130850EF90DF90CF900895CF93DF93C1E0D0E085
S113086001C02196CE01019781309105A1F082301B
S1130870910501F1892B69F50E94DB0040E060E0FD
S113088080E690E00E94EE0082E090E00E94B503D2
S11308900E940E03E6CF0E94DB0040E060E08CE69D
S11308A090E00E94EE0082E090E00E94B5030E9476
S11308B02403D7CF0E94DB0040E060E089E790E0AA
S11308C00E94EE0082E090E00E94B5030E943A0389
S11308D003C0C330D1052CF20E94DB0040E060E08D
S11308E089E890E00E94EE002FE78AE196E021502B
S11308F080409040E1F700C000000E94DB001092AD
S1130900FD001092FC00DF91CF910895CF93DF9307
S1130910C1E0D0E001C02196CE010197813091055C
S1130920A1F08230910501F1892B69F50E94DB0069
S113093040E060E087E990E00E94EE0082E090E011
S11309400E94B5030E947202E6CF0E94DB0040E0E1
S113095060E083EA90E00E94EE0082E090E00E9472
S1130960B5030E945C02D7CF0E94DB0040E060E048
S113097081EB90E00E94EE0081E090E00E94B503DC
S11309800E94940203C0C330D1052CF20E94DB0004
S113099040E060E083EC90E00E94EE002FE78AE103
S11309A096E0215080409040E1F700C000000E9492
S11309B0DB00DF91CF9108950E9450039093FD00D6
S11309C08093FC000E94DB0040E060E081ED90E059
S11309D00E94EE0041E060E082EE90E00E94EE00B2
S11309E08091FC009091FD00181619067CF481306A
S11309F0910519F0029731F403C00E942C0402C03F
S1130A000E9486041092FD001092FC0008950E943A
S1130A102802853029F40E940D02843009F4C0981C
S1130A200895CF93DF93CDB7DEB765970FB6F894EB
S1130A30DEBF0FBECDBF0E9497000E94DB000E9464
S1130A4042010E94DC018FE08ABB8FEF8BBBB89A16
S1130A50C09A0E9450039093FD008093FC004AE0EA
S1130A60BE01645F7F4F0E945A058091FC00909103
S1130A70FD008F3F9105C9F4CE0101960E94B30297
S1130A8040E060E084EF90E00E94EE0041E060E02E
S1130A90CE0101960E94EE000E9407058091FC00A1
S1130AA09091FD008F3F910539F30E94DC040E9470
S1130AB00705CFCFBB274A3031F4992322F4BDE296
S1130AC0909581959F4F0C946605BB27FB01552794
S1130AD0AA27880F991FAA1FA41710F0A41B839597
S1130AE05051B9F7A05DAA3308F0A95DA19300970E
S1130AF079F7B111B1931192CB010C947F05DC010C
S1130B00FC01672F71917723E1F7329704C07C9140
S1130B106D9370836291AE17BF07C8F30895F8947C
S1050B20FFCF01
S1130B22456E74657220446174653A00456E74655D
S1130B3272204D6F6E74683A00456E746572205966
S1130B42656172283137293A004F4B3A2044617467
S1130B5265207365742E00456E74657220486F7546
S1130B62723A00456E746572204D696E7574653A09
S1130B720053656C65637420303A414D2C20313A40
S1130B82504D004F4B3A2054696D65207365742EA5
S1130B92004D454E553A20312D53657444617465B8
S1130BA22C00322D7454696D6520332D73657441A4
S10F0BB26C616D00434C4F434B2B2B0037
S9030000FC
