S01B00005350495F474C43445F436F6E74726F6C6C65722E7372656321
S11300000C9448050C9465050C9465050C946505E1
S11300100C9465050C9465050C9465050C946505B4
S11300200C9465050C9465050C9465050C946505A4
S11300300C9465050C9465050C9465050C94650594
S11300400C9465050C947F070C9465050C94650568
S11300500C9465050C9465050C9465050C94650574
S11300600C9465050C946505C8075608560856088F
S1130070B407B907BE07A007C307560856085608B1
S1130080A50756085608AF0756085608AA072F08AA
S113009054082B0827083908400847080B084E085D
S11300A054085408540812085408540820085408E2
S11300B054081908000000000000000000000000BF
S11300C0000000000000000000000000000000002C
S11300D0000000000000000000000000000000001C
S11300E00000000006000000000000000000000006
S11300F0000000000F0000000000000000000000ED
S11301000000000009FC00000000000000000000E6
S1130110000000000BFE00000000000000000000D2
S1130120000000000DFF00000000000000000000BF
S1130130000000000CFF00000000000000000000B0
S1130140000000001C7F8000000000000000000090
S1130150000000001E7FC00000000000000000003E
S1130160000000003E3FE00000000000000000002E
S1130170000000003F1FF00000000000000000002D
S1130180000000003F1FFF0000000000000000000E
S1130190000000001F9FFFE00000000000000000BE
S11301A0000000001F9FFFF000000000000000009E
S11301B0000000001FFFFFF8000000000000000026
S11301C0000000000FFFFFF8000000000000000026
S11301D0000000000FFFFFF000000000000000001E
S11301E00000000007F1FFE0000000000000000034
S11301F00000000007E0FFC0000000000000000055
S11302000000000007E0FF80000000000000000084
S11302100000000007F0FF000000000000000000E4
S11302200000000007FBFE000000000000000000CA
S11302300000000007FFF8000000000000000000BC
S1130240000000000FFFF0000000000000000000AC
S1130250000000000FFFE0000000000000000000AC
S1130260000000000FFF80000000000000000000FC
S1130270000000000FFE000000000000000000006D
S1130280000000000FFC000000000000000000005F
S1130290000000000FF0000000000000000000005B
S11302A0000000000FC0000000000000000000007B
S11302B0000000000E00000000000000000000002C
S11302C0000000000000000000000000000000002A
S11302D0000000000000003FFFFFFFFFFFFFFFFFE3
S11302E0FFFFFC000000007FFFFFFFFFFFFFFFFF99
S11302F0FFFFFE00003800E00000000000000000E6
S113030000000700007800C00000000000000000AA
S11303100000030000C6018000000000000000008F
S113032000000180010201800000000000000000C4
S113033000000180010101800000000000000000B5
S113034000000180010101800000000000000000A5
S11303500000018001010180000000000000000095
S11303600000018001010180000000000000000085
S11303700000018001010180000000000000000075
S11303800000018001010180000000000000000065
S11303900000018002010180000000000000000054
S11303A000000180020081800000000000000000C5
S11303B0000001800400C180000000000000000073
S11303C000000180080061800000000000000000BF
S11303D000000180100031800000000000000000D7
S11303E000000180180031800000000000000000BF
S11303F0000001800FFFC180000000000000000029
S1130400000001800078018000000000000000006E
S113041000000180003001C0000000000000000066
S113042000000300000000C0000000000000000005
S113043000000300000000FFFFFFFFFFFFFFFFFFBE
S1130440FFFFFE000000003FFFFFFFFFFFFFFFFF75
S1130450FFFFFC000000000000000000000000009E
S11304600000000000000000000000000000000088
S11304700000000000000000000000000000000078
S11304800000000000000000000000000000000068
S11304900000000000000000000000000000000058
S11304A00000000000000000000000000000000048
S11304B00000000000000000000000000000000038
S11304C00000000000000000000000000000000028
S11304D00000000000000000000000000000000018
S11304E00000000000000000000000000000000008
S11304F000000000000000000000000000000000F8
S113050000000000000000000000000000000000E7
S113051000000000000000000000000000000000D7
S113052000000000000000000000000000000000C7
S113053000000000000000000000000000000000B7
S113054000000000000000000000000000000000A7
S11305500000000000000000000000000000000097
S113056000000E0000000000000000000000000079
S113057000001F0000000000000000000000000058
S113058000003F0000000000000000000000000028
S113059000003F0000000000000000000000000018
S11305A00003FF0000000000000000000000000045
S11305B000073E00000000000000000000000000F2
S11305C0000C0E000000000000000000000000000D
S11305D000180600000000000000000000000000F9
S11305E00030030000000007F000000000000000DD
S11305F0002003000000000FF800000000000000CD
S1130600004003000000000FF8000000000000009C
S1130610004001000000000FF80FFE00001C1C0049
S1130620008001800000000FFC0FFF8000FCFC0034
S1130630010001000000001FFC0FFF8001F9F80019
S1130640030001000000001FFC0FCF8001F9F80E29
S1130650060001000000003FFC0F8F8001F9F86CD8
S11306601C0003000000007FF80F9F03C1F1F0504D
S113067070000200000000FFF80F9F0FE1F1F0711D
S1130680E0000200000000FFF80FBE1FF1F1F0537C
S1130690E0000600000001FFF81FFC3CF1E1E0036C
S11306A0F8000400000003FFF81FFE3CF1E1E00342
S11306B0FE000C00000007EFF81F7F7FF3E3E0016A
S11306C0FF800C00000007EFF83E3F7FF3E3E000FB
S11306D0FFC0080000000FCFF83E3FF803C3C0007E
S11306E0FFF0080000001F8FF83E3EF807C7C00067
S11306F07FF8080000001F8FF07E7EF807C7C00057
S11307003FFC080000003F1FF07E7CFCC7C7C00010
S11307100FFF080000007E1FF0FFFC7FCFCFC0005A
S113072007FF88000000FE1FF1FFF07F9FDFC0007D
S113073021FFEC000000FC1FF0FFC03E1F9F800063
S113074038FFFC800001F81FF000000000000000EA
S11307500C3FFC800007F81FF000000000000000C0
S1130760071FFC80003FFFFFF0000000000000189E
S11307700FC7FCC0007FFFFFF0000000000000185E
S11307800E01FCE000FFFFFFF00000000000011874
S11307900400FCB001FFFFFFF000080000000100AE
S11307A00000012003FFFFFFF00018000000030019
S11307B00000000003FFFFFFF03B9E68FEE3E798A4
S11307C0F000000003FFFFFFF03B984C66626318E3
S11307D09800000000FFFF1FF03B98CC666263198D
S11307E09000000001FE001FF03B98CE6660631984
S11307F08000000003FC001FF03B98CE6661631983
S11308008000000007F8001FF83B98CE6663631968
S11308108000000007F8001FF83B98CC6666631957
S1130820C30000000FF0001FF81B9C4C66676318A0
S1130830C30000001FE0001FF8198C38E6637398AA
S1130840610000003FC0001FE00000000000000045
S1130850000000003F00000F8000000000000000C6
S1130860000000001800000000000000000000006C
S11308700000000000000000000000000000000074
S11308800000000000000000000000000000000064
S11308900000000000000000000000000000000054
S11308A00000000000000000000000000000000044
S11308B000000000000000000000005F00000007CE
S11308C0000700147F147F14242A7F2A122313089C
S11308D0646236495522500005030000001C224181
S11308E0000041221C00082A1C2A0808083E0808A7
S11308F0005030000008080808080060600000206C
S1130900100804023E5149453E00427F40004261C6
S11309105149462141454B311814127F1027454552
S113092045393C4A49493001710905033649494969
S113093036064949291E00363600000056360000A6
S1130940000814224114141414144122140800023F
S113095001510906324979413E7E1111117E7F49C8
S11309604949363E414141227F4141221C7F494948
S113097049417F090901013E414151327F0808087C
S11309807F00417F41002040413F017F0814224104
S11309907F404040407F0204027F7F0408107F3E76
S11309A04141413E7F090909063E4151215E7F09CB
S11309B0192946464949493101017F01013F404017
S11309C0403F1F2040201F7F2018207F63140814FD
S11309D0630304780403615149454300007F4141A6
S11309E0020408102041417F000004020102044077
S11309F040404040000102040020545454787F4891
S1130A004444383844444420384444487F38545497
S1130A105418087E090102085454543C7F08040405
S1130A207800447D40002040443D00007F1028446D
S1130A3000417F40007C041804787C080404783862
S1130A40444444387C14141408081414187C7C0896
S1130A500404084854545420043F4440203C40407B
S1130A60207C1C2040201C3C4030403C4428102862
S1130A70440C5050503C4464544C440008364100EB
S1130A8000007F00000041360800003008100C0010
S1130A9011241FBECFEFD8E0DEBFCDBF11E0A0E030
S1130AA0B1E0E2E9F6E102C005900D92AA38B1077F
S1130AB0D9F725E0AAE8B1E001C01D92A439B20734
S1130AC0E1F70E9454070C94470B0C940000239800
S1130AD025982298249A80E48CBD8DB580688DBDBC
S1130AE078948CB580688CBD0895CF93DF9300D043
S1130AF000D000D0CDB7DEB719821B821D82809151
S1130B008D014AE0BE016F5F7F4F90E00E94120B9F
S1130B1080918C014AE0BE016D5F7F4F90E00E949E
S1130B20120B80918B014AE0BE016B5F7F4F90E016
S1130B300E94120B84EB90E00E9413092FEF40E413
S1130B4051E062E185E00E94E60980918D018A30DE
S1130B5048F42FEFAE014F5F5F4F6BE285E00E94D8
S1130B60E60908C02FEFAE014F5F5F4F6BE284E0F0
S1130B700E94E6092FEF48E451E06BE286E00E9410
S1130B80E60980918C018A3080F42FEF4AE451E029
S1130B906BE287E00E94E6092FEFAE014D5F5F4FE5
S1130BA06BE288E00E94E60908C02FEFAE014D5FBA
S1130BB05F4F6BE287E00E94E6092FEF48E451E0C3
S1130BC06BE289E00E94E60980918B018A3080F40F
S1130BD02FEF4AE451E06BE28AE00E94E6092FEF2E
S1130BE0AE014B5F5F4F6BE28BE00E94E60908C0E9
S1130BF02FEFAE014B5F5F4F6BE28AE00E94E60984
S1130C002FEF4CE451E06BE28CE00E94E60926965B
S1130C100FB6F894DEBF0FBECDBFDF91CF9108951C
S1130C2084EB94E00E941309089580E00E940A0A6C
S1130C302FEF40E060E880E00E94940A2FEF4FE33A
S1130C4060E880E00E94940A2FEF40E460E080E0D6
S1130C500E94AD0A2FEF40E460E08FE70E94AD0AE6
S1130C606FEF81E00E943F0A08958F3F71F4609115
S1130C709001660F6E5F862F880F880F680F2FEF25
S1130C804EE381E00E946109089581110DC06091D5
S1130C909001660F6E5F862F880F880F680F2FEF05
S1130CA040E281E00E9461090895EF92FF920F9360
S1130CB01F93CF9320E04FE451E061E082E00E9473
S1130CC0E60980919001863018F5CAE0E12CF12CF8
S1130CD08701000F111F00501F4FF80140812FEFB3
S1130CE06C2F82E00E9461092FEF4AE36C2F84E0AD
S1130CF00E946109F80141812FEF6C2F85E00E9469
S1130D006109FFEFEF1AFF0AC75FC03409F733C068
S1130D102FEF4EE56AE08EE00E946109CAE000E030
S1130D2010E080919001F801E80FF11DEE0FFF1F14
S1130D30E050FF4F40812FEF6C2F82E00E94610949
S1130D402FEF4AE36C2F84E00E94610980919001A7
S1130D50F801E80FF11DEE0FFF1FE050FF4F418136
S1130D6050E02FEF6C2F85E00E94E6090F5F1F4FC4
S1130D70C75FC034B1F6CF911F910F91FF90EF90F0
S1130D800895242F95E0980F462F692F0E94940A06
S1130D9008951F93CF93DF9380E00E943506D7E137
S1130DA01AE00BC04FEF6C2F8D2F0E94670ACF5FA4
S1130DB0C833C1F7DF5FD03711F0C12FF3CF809173
S1130DC08E018633B9F520E04DE551E069E185E017
S1130DD00E94E60940E069E288E20E94C10640E020
S1130DE069E280E30E94C10640E069E280E40E9477
S1130DF0C10640E069E288E40E94C10640913F01D7
S1130E0020E061E285E00E94610940913E0120E01A
S1130E1061E286E00E94610940913D0120E061E2C7
S1130E2088E00E94610940913C0120E061E289E090
S1130E300E946109DF91CF911F91089580918F01E4
S1130E40843319F0853351F12BC0809190018530A2
S1130E5038F50E94150620E043E651E061E082E0A7
S1130E600E94E60920E040E361E08FE00E9461090E
S1130E702FEF4DE651E06AE082E00E94E6092FEF91
S1130E8046E751E063E182E00E94E6092FEF44E87F
S1130E9051E06DE182E00E94E60902C00E94C906A9
S1130EA08FEF0E94350608950E94D1080E946705BD
S1130EB080918F01843381F028F48233C1F083332D
S1130EC0C9F01AC0873359F0883319F08533A1F477
S1130ED00BC00E94750510C00E941E070DC00E9421
S1130EE015060E94550608C00E94C90605C00E9446
S1130EF0750502C00E9410060E94C60AD9CF1F922F
S1130F000F920FB60F9211242F938F939F93AF9349
S1130F10BF93EF93FF932EB580919101813009F037
S1130F206DC0E09192018E2F90E0FC01E156F10931
S1130F30E331F10508F0BAC0EC5CFF4F0C940C0BE4
S1130F4020938D0110929101B1C020938C011092D5
S1130F509101ACC020938B0110929101A7C0209302
S1130F608A0110929101A2C020933F011092910135
S1130F709DC020933E011092910198C020933D01A1
S1130F801092910193C020933C01109291018EC064
S1130F90253759F480919001882309F487C0809102
S1130FA0900181508093900181C0263759F480913B
S1130FB09001823008F07AC0809190018F5F809315
S1130FC0900174C02B3609F071C08091900181307A
S1130FD059F018F0823061F00EC085E380938F01E0
S1130FE086E380938E0107C087E380938F0103C05B
S1130FF088E380938F011092910158C0822F90E072
S1131000FC01E156F109E331F10508F04DC0E95B5B
S1131010FF4F0C940C0B81E08093910188E6809340
S1131020920142C081E0809391018DE68093920108
S11310303BC081E08093910183E78093920134C0A7
S113104081E08093910180E7809392012DC083E336
S113105080938F0129C082E380938F0125C084E3AC
S113106080938F0181E08093910181E680939201C6
S11310701BC081E08093910185E68093920114C0A6
S113108081E08093910186E6809392010DC081E016
S11310908093910187E68093920106C081E080935A
S11310A0910189E68093920120939301FF91EF913E
S11310B0BF91AF919F918F912F910F900FBE0F9081
S11310C01F9018958AB11AB840988FE391E0019760
S11310D0F1F700C00000419A8FE391E00197F1F726
S11310E000C00000429A8FE391E00197F1F700C03D
S11310F00000000042988FE391E00197F1F700C0EF
S1131100000089B18AB18FEF8AB940988FE391E0EA
S11311100197F1F700C0000041988FE391E0019737
S1131120F1F700C000000895CF93DF93D82FC62FA6
S11311300E946208D13041F4409A8FE391E0019714
S1131140F1F700C0000007C040988FE391E00197D9
S1131150F1F700C0000041988FE391E00197F1F7A7
S113116000C00000CBB9429A8FE391E00197F1F7F8
S113117000C00000000042988FE391E00197F1F76E
S113118000C00000DF91CF910895882329F066E321
S113119080E00E949408089564E380E00E9494082B
S11311A008958AB18FEF8AB987B18F6087B9429861
S11311B08FE391E00197F1F700C0000040988FE3BE
S11311C091E00197F1F700C0000041988FE391E0AE
S11311D00197F1F700C00000439895E09A95F1F764
S11311E00000439A2FEF83EF91E02150804090401C
S11311F0E1F700C0000060E380E00E9494086CE026
S113120080E00E94940861E080E00E94940866E017
S113121080E00E94940862E080E00E94940881E0EB
S11312200E94C50808950F931F93CF93DF9340E066
S113123050E0C0E0D0E000E010E020C0F901E40F8D
S1131240F51FE80FF91FE491D9010024B695A7957D
S11312500794B695A7950794BA2FA02DA60FB71F8C
S1131260AC56BE4FEC932F5F3F4F2031310531F721
S11312702196405F5F4FC034D10521F0BE01202F7D
S1131280312FDCCFDF91CF911F910F910895CF9330
S1131290C82F603250F4606880E00E9494086C2F7C
S11312A0606880E00E9494080AC06052606880E030
S11312B00E9494086C2F686880E00E949408CF9183
S11312C008959F92AF92BF92CF92DF92EF92FF92D6
S11312D00F931F93CF93DF9300D000D01F92CDB70D
S11312E0DEB750E040525109FA01EE0FFF1FEE0F36
S11312F0FF1F4E0F5F1FFA01EC54F74FE491ED838B
S1131300FA01EB54F74FE491EC83FA01EA54F74FF6
S1131310E491EB83FA01E954F74FE491EA83FA018B
S1131320E854F74F4491498300E010E0EE24E3943D
S1131330F12C0F2EF3E09F2EF02DA12CB12CC62EF4
S1131340D12C90E4899FB001112422C04D9150E02A
S113135048235923452B41F0A7010E2E02C0440F08
S1131360551F0A94E2F7342B3196E830F10571F7F2
S11313702F3F09F03095F801EC0DFD1DE60FF71F26
S1131380EC56FE4F30830F5F1F4F0830110569F094
S1131390C701002E02C0880F991F0A94E2F7DE01EC
S11313A01196E92DFA2D3B2DD1CF0F900F900F9070
S11313B00F900F90DF91CF911F910F91FF90EF90BD
S11313C0DF90CF90BF90AF909F900895EF92FF92DF
S11313D00F931F93CF93DF93D82FF62EE22EFA01AB
S11313E001900020E9F73197CE2FC41B61F08A01E8
S11313F0F80141918F012E2D6F2D8D2F0E946109CF
S1131400DF5FC150A9F7DF91CF911F910F91FF903A
S1131410EF90089540E050E070E060E09FEF2BC053
S1131420882381F0F9010024F695E7950794F69551
S1131430E7950794FE2FE02DE40FF51FEC56FE4FC1
S113144090830FC0F9010024F695E7950794F6956B
S1131450E7950794FE2FE02DE40FF51FEC56FE4FA1
S113146010822F5F3F4F20313105D1F64F5F5F4F20
S11314704034510519F0272F362FD2CF0895482F25
S113148050E0DA0118964A175B07E4F00895F90171
S11314900024F695E7950794F695E7950794FE2FB3
S11314A0E02DE40FF51FEC56FE4F60832F5F3F4F96
S11314B02031310561F78F5F482F50E04A175B07F1
S11314C01CF0089570E090E0272F392FE0CF282FEB
S11314D030E02095309527703327E1E0F0E0DF011C
S11314E002C0AA0FBB1F2A95E2F79D018695869537
S11314F086954F3F61F4B0E48B9FF0011124E60F11
S1131500F11DEC56FE4F8081282B2083089590E432
S1131510899FF0011124E60FF11DEC56FE4F8081E6
S113152020952823208308950F931F93CF93DF934F
S1131530C82FD62F142F022F681710F4C62FD82FB8
S1131540402F612F8C2F0E94670ACF5FDC17C0F7F2
S1131550DF91CF911F910F9108950F931F93CF9314
S1131560DF93182FC62FD42F022F461710F4C42F41
S1131570D62F402F6C2F812F0E94670ACF5FDC1774
S1131580C0F7DF91CF911F910F910895BF92CF9231
S1131590DF92EF92FF920F931F93CF93DF9300E0BC
S11315A010E0B12CC12CEE24E394F02E602F80E0E7
S11315B00E944709CB2DDC2DD12C8C2F9FE39F1546
S11315C030F4D11004C06F2D0E944709DE2CFE01B7
S11315D00024F695E7950794F695E7950794FE2F72
S11315E0E02DE00FF11FEC56FE4F60818E2D0E941E
S11315F094082196C031D10501F70F5F1F4F0034C5
S1131600110599F6DF91CF911F910F91FF90EF9003
S1131610DF90CF90BF900895EE0FFF1F0590F491D7
S1131620E02D0994BB274A3031F4992322F4BDE21A
S1131630909581959F4F0C941E0BBB27FB0155275A
S1131640AA27880F991FAA1FA41710F0A41B83951B
S11316505051B9F7A05DAA3308F0A95DA193009792
S113166079F7B111B1931192CB010C94370BDC01D2
S1131670FC01672F71917723E1F7329704C07C91C5
S11316806D9370836291AE17BF07C8F30895F89401
S1051690FFCF86
S11316923031303200000000000000000000000081
S11316A20000000000000000000000000000000034
S11316B20000000000000000000000000000000024
S11316C20000000000000000000000003030303054
S11316D254494D45204E4F573A003000504D005466
S11316E2494D45205343484544554C450048483AE2
S11316F24D4D004D41494E2D4D454E5500534554D7
S11317022054494D450056494557205343484544C2
S10D1712554C4500484F4D450000BA
S9030000FC
