S01A00004175746F6D617469635F42656C6C5F4350552E737265633E
S11300000C9456000C9473000C9473000C947300BD
S11300100C949B030C9473000C9473000C94730065
S11300200C9473000C9473000C9473000C94CC0225
S11300300C9473000C9473000C9473000C94730070
S11300400C9473000C9473000C9473000C94730060
S11300500C9473000C9473000C9473000C94730050
S11300600C9473000C9473007D0384038403840351
S11300708403840384037603840384038403840352
S1130080840316031B0322032903300337033E03AF
S113009045034C03530384038403840384038403CC
S11300A0840384035A03610368036F0311241FBE8E
S11300B0CFEFD8E0DEBFCDBF11E0A0E0B1E0E4EBCC
S11300C0FBE002C005900D92A230B107D9F721E000
S11300D0A2E0B1E001C01D92A431B207E1F70E9491
S11300E0B0030C94D8050C94000084B18C6284B9DC
S11300F024982A9A81E58CBD08952A988EBD0DB462
S113010007FEFDCF0895F8948FE08AB98FEF8BB97D
S1130110E8E6F0E0808182608083D99AECE6F0E042
S1130120808188608083789408958EEF8BB98AE00B
S11301308A95F1F700C089B1807F803E41F0803D0F
S113014041F0803B41F0803741F481E407C081E312
S113015005C082E303C083E301C080E29DEF9BB945
S11301609AE09A95F1F700C099B1907F903E41F0E2
S1130170903D41F0903B41F0903739F482E405C062
S113018084E303C085E301C086E39BEF9BB99AE057
S11301909A95F1F700C099B1907F903E41F0903D5F
S11301A041F0903B41F0903739F483E405C087E394
S11301B003C088E301C089E397EF9BB99AE09A955D
S11301C0F1F700C099B1907F903E41F0903D41F02D
S11301D0903B41F0903739F484E408958AE208951D
S11301E080E3089583E208950E94D7048093100168
S11301F00E94BC04809313010E94A10480930F0108
S11302000E94F10480930D010E9462058093120103
S11302100E947C0580930B010E94960580930E0139
S1130220089588E60E947D00809110010E947D005F
S11302308DE60E947D00809113010E947D0083E77A
S11302400E947D0080910F010E947D0080E70E9442
S11302507D0080910D010E947D0083E60E947D0057
S11302600895CF93C62F0E947D008C2F0E947D009D
S1130270CF910895BF92CF92DF92EF92FF920F93A6
S11302801F93CF93DF937C01B62E00E010E0C0E013
S1130290D0E0CC24CA94DC2C8AC02091090130918E
S11302A00A013323D4F3C130D105C1F01CF42097E3
S11302B041F050C0C230D10549F1C330D105C1F17C
S11302C049C00091090110910A0189E3B81609F4A3
S11302D04AC08AE3B81609F455C064C0C801880F3F
S11302E0991F000F111F000F111F000F111F080F7E
S11302F0191F8091090190910A01080F191F89E3C0
S1130300B816D1F18AE3B816E9F14CC0C801880FD8
S1130310991F000F111F000F111F000F111F080F4D
S1130320191F8091090190910A01080F191F4AC0F1
S1130330C801880F991F000F111F000F111F000F14
S1130340111F080F191F8091090190910A01080FCC
S1130350191F38C089E3B81621F08AE3B81691F062
S113036021C0209731F460910C0185E60E9431018F
S113037019C0C130D105B1F460910C0186E60E9428
S1130380310110C0209731F460910C0187E60E947E
S1130390310108C0C130D10529F460910C0189E60E
S11303A00E943101D0920A01C09209012196CE1512
S11303B0DF0564F42091090130910A0133230CF420
S11303C06CCF71CF8AE3B812EDCFDCCFC801DF91D7
S11303D0CF911F910F91FF90EF90DF90CF90BF903E
S11303E00895FF920F931F93CF93DF9380910001A1
S11303F0863379F135C02196CE01019719F0019722
S1130400B1F01DC069E382E090E00E943A018D30B2
S113041091053CF08C500E94210581E00E94430527
S1130420EACF0E94210580E00E944305E4CF6AE3FD
S113043082E090E00E943A010E940B0503C0C230A2
S1130440D105CCF21093000180910001863329F08C
S113045007C0FF24F39400E014E3CF2DD02FCCCFBA
S1130460DF91CF911F910F91FF900895F894E1E8E7
S1130470F0E080818A608083EFE6F0E08081826032
S1130480808380ED97E09093890080938800109298
S11304908500109284007894089584E60E947D007B
S11304A008958091090190910A01992344F0809163
S11304B00301811104C08FEF80930301089580919B
S11304C0090190910A0199230CF465C080910301FC
S11304D08F3F09F060C080910001863309F44BC05E
S11304E0883309F44BC0843309F055C081E60E9477
S11304F07D00809102018F3FD1F580910C01813400
S113050061F485E70E947D0080910801882329F029
S11305108091080181508093080180910C018234FC
S113052061F486E70E947D0080910801823028F4FE
S1130530809108018F5F8093080180910C018332C0
S1130540B1F48BE60E947D0080910801813041F076
S113055018F0823049F00BC086E38093000107C095
S113056087E38093000103C088E3809300018FEF49
S11305708093020108950E94F10108958091090178
S113058090910A011816190634F484E3809300014B
S11305908FEF8093020108951F920F920FB60F926E
S11305A011242F933F934F935F936F937F938F9374
S11305B09F93AF93BF93EF93FF9380910401909126
S11305C00501A0910601B09107010196A11DB11D7D
S11305D08093040190930501A0930601B093070151
S11305E00E94950080930C016091040170910501B3
S11305F0809106019091070126E930E040E050E047
S11306000E94B005672B682B692B11F40E945102DC
S1130610E0910C018E2F90E0FC01B397E232F105DA
S113062008F072C0EC5CFF4F0C94D20510920A01E2
S1130630109209016FC081E090E090930A018093C9
S1130640090168C082E090E090930A018093090157
S113065061C083E090E090930A01809309015AC03D
S113066084E090E090930A018093090153C085E0EF
S113067090E090930A01809309014CC086E090E0D9
S113068090930A018093090145C087E090E090931C
S11306900A01809309013EC088E090E090930A012A
S11306A08093090137C089E090E090930A01809318
S11306B0090130C08AE090E090930A018093090117
S11306C029C08BE090E090930A018093090122C035
S11306D08CE090E090930A01809309011BC08DE0A7
S11306E090E090930A018093090114C08EE090E099
S11306F090930A01809309010DC08FE090E09093DC
S11307000A018093090106C08FEF9FEF90930A01BD
S113071080930901FF91EF91BF91AF919F918F91C8
S11307207F916F915F914F913F912F910F900FBEE9
S11307300F901F9018951F920F920FB60F921124CD
S11307400F900FBE0F901F9018950E9475000E9485
S113075083000E9470040E9436020E944D02089594
S11307600E94A5030E94F400809100018833D1F710
S11307700E941101F7CF82E08093B800E9EBF0E02A
S1130780808183608083ECEBF0E0808184608083EF
S1130790089584EA8093BC00ECEBF0E08081882328
S11307A0ECF7089584E98093BC00ECEBF0E08081E1
S11307B084FDFDCF08958093BB0084E88093BC0042
S11307C0ECEBF0E080818823ECF78091B900887F1E
S11307D0883169F08091B900887F883251F0909116
S11307E0B900987F81E0903429F080E0089581E099
S11307F0089581E00895DC01662331F0ECEBF0E02C
S113080090819064908305C0ECEBF0E090819F7B35
S11308109083ECEBF0E09081906890839081992331
S1130820ECF79091B900987F983529F09091B90030
S1130830987F903529F48091BB008C9381E00895D2
S113084080E008950F931F93CF93C82F8B010E94CC
S1130850C90380ED0E94DB038823B1F08C2F0E9432
S1130860DB03882399F00E94C90381ED0E94DB0316
S1130870882371F060E0C8010E94FB03882351F0D3
S11308800E94D20381E007C080E005C080E003C07D
S113089080E001C080E0CF911F910F910895CF9324
S11308A0DF93C82FD62F0E94C90380ED0E94DB037B
S11308B0882371F08C2F0E94DB03882359F08D2F3D
S11308C00E94DB03882341F00E94D20381E005C02B
S11308D080E003C080E001C080E0DF91CF91089503
S11308E0CF93DF931F92CDB7DEB70E94BB03BE0147
S11308F06F5F7F4F80E00E942204982F8823E1F0ED
S113090069816F77698380E00E944F04982F882360
S113091099F0BE016F5F7F4F82E00E942204982FFE
S1130920882351F069816064698382E00E944F04E6
S113093091E0811101C090E0892F0F90DF91CF9158
S11309400895CF93DF931F92CDB7DEB7BE016F5FDB
S11309507F4F80E00E9422049981892F80778695B9
S113096086958695282F220F220F820F9F70890F5C
S11309700F90DF91CF910895CF93DF931F92CDB75E
S1130980DEB7BE016F5F7F4F81E00E942204998130
S1130990892F8077869586958695282F220F220F9A
S11309A0820F9F70890F0F90DF91CF910895CF939D
S11309B0DF931F92CDB7DEB7BE016F5F7F4F82E03A
S11309C00E942204998194FB882780F9880F282F9C
S11309D0220F220F820F9F70890F0F90DF91CF910A
S11309E00895CF93DF931F92CDB7DEB7BE016F5F3B
S11309F07F4F82E00E9422048981807290E0959565
S1130A0087959595879595958795959587950F9055
S1130A10DF91CF9108959DEC899F912D1124969596
S1130A209695969520E1929FB0011124990F292F54
S1130A30220F220F920F891B682B81E00E944F0422
S1130A400895CF93C82F0E94F1049DECC99F912D66
S1130A50112496959695969540E1949F90011124C2
S1130A60990F392F330F330F930FC91B2C2B81117F
S1130A7003C0622F606402C0622F606682E00E943D
S1130A804F04CF9108951F93CF93DF931F92CDB757
S1130A90DEB7182FBE016F5F7F4F82E00E942204F1
S1130AA0112321F089818062898303C089818F7D2C
S1130AB08983698182E00E944F040F90DF91CF9176
S1130AC01F910895CF93DF931F92CDB7DEB7BE0178
S1130AD06F5F7F4F84E00E942204998194FB8827F2
S1130AE080F9880F282F220F220F820F9F70890F01
S1130AF00F90DF91CF910895CF93DF931F92CDB7DD
S1130B00DEB7BE016F5F7F4F85E00E9422049981AA
S1130B1094FB882780F9880F282F220F220F820F39
S1130B209F70890F0F90DF91CF910895CF93DF933A
S1130B301F92CDB7DEB7BE016F5F7F4F86E00E9484
S1130B4022049981892F82958F70880F282F220F74
S1130B50220F820F9F70890F0F90DF91CF9108951C
S1130B60A1E21A2EAA1BBB1BFD010DC0AA1FBB1FAD
S1130B70EE1FFF1FA217B307E407F50720F0A21B1F
S1130B80B30BE40BF50B661F771F881F991F1A948C
S1130B9069F760957095809590959B01AC01BD01B6
S1130BA0CF010895EE0FFF1F0590F491E02D0994F5
S1070BB0F894FFCFE3
S1050BB4340007
S9030000FC
