:100000000C9458000C9480000C9480000C94800098
:100010000C9480000C9480000C9480000C94800060
:100020000C9480000C9480000C9480000C94800050
:100030000C9480000C9480000C9480000C94800040
:100040000C94B0020C9480000C9480000C948000FE
:100050000C9480000C9480000C9480000C94800020
:100060000C94FA020C948000000000002500280087
:100070002B00040404040404040402020202020229
:10008000030303030303010204081020408001025C
:1000900004081020010204081020000000080002DB
:1000A0000100000304070000000000000000280415
:1000B00011241FBECFEFD8E0DEBFCDBF11E0A0E01E
:1000C000B1E0E0E9FAE002C005900D92A232B1077A
:1000D000D9F721E0A2E2B1E001C01D92A73DB2072D
:1000E000E1F710E0C8E5D0E004C02197FE010E94CE
:1000F0003B05C735D107C9F70E944A040C94460551
:100100000C94000090E0FC01E656FF4F2491FC01A6
:10011000EA57FF4F3491FC01EE58FF4FE491EE2374
:10012000B1F1222339F1233091F038F42130A9F0D4
:10013000223001F584B58F7D12C0273091F0283030
:10014000A1F02430B9F4809180008F7D03C08091AC
:1001500080008F77809380000DC084B58F7784BD39
:1001600009C08091B0008F7703C08091B0008F7D6F
:100170008093B000F0E0EE0FFF1FE859FF4FA5910C
:10018000B4918FB7F894EC913E2B3C938FBF0895B8
:10019000CF92DF92EF92FF920F931F93CF93DF9353
:1001A0006C017A018B01C0E0D0E0CE15DF0589F04B
:1001B000D8016D918D01D601ED91FC910190F081F6
:1001C000E02DC6010995892B11F47E0102C021960C
:1001D000ECCFC701DF91CF911F910F91FF90EF906E
:1001E000DF90CF9008953FB7F8948091B40190913B
:1001F000B501A091B601B091B70126B5A89B05C085
:100200002F3F19F00196A11DB11D3FBFBA2FA92F95
:10021000982F8827820F911DA11DB11DBC01CD0112
:1002200042E0660F771F881F991F4A95D1F70895FE
:100230008F929F92AF92BF92CF92DF92EF92FF92F6
:100240006B017C010E94F3004B015C01C114D104DD
:10025000E104F104F1F00E94F300DC01CB01881904
:100260009909AA09BB09883E9340A105B10570F31D
:1002700021E0C21AD108E108F10888EE880E83E077
:10028000981EA11CB11CC114D104E104F10419F79A
:10029000DDCFFF90EF90DF90CF90BF90AF909F9019
:1002A0008F90089585ED8093BC008091BC0084FD03
:1002B000FCCF1092BA01089540914401262F30E0FE
:1002C000240F311D21323105DCF42091BA01243094
:1002D000C9F4FC0180E090E0861758F430914401A5
:1002E0002191DC01AE5DBE4FA30FB11D2C93019691
:1002F000F3CF80914401680F6093440180E008953A
:1003000081E0089582E00895089581E090E03091C1
:10031000BE012091BD01321710F480E090E091956C
:100320008195910908958091BE019091BD01891731
:1003300030F48F5F8093BE0180E090E008958FEFEE
:100340009FEF08958091BD0190E02091BE01821B36
:1003500091090895CF92DF92EF92FF920F931F932E
:10036000CF93DF937C01262F972F8A0180918D01F7
:10037000882391F0C62FD72F6E01C40ED51ECC1541
:10038000DD0571F06991D701ED91FC910190F0814B
:10039000E02DC7010995F3CF642F822F0E945C01E5
:1003A000C801DF91CF911F910F91FF90EF90DF90E7
:1003B000CF900895CF93DF931F92CDB7DEB76983B7
:1003C00020918D012223D1F02091BB01203240F0F9
:1003D00021E030E0FC013383228380E090E015C00F
:1003E0008091BC01E82FF0E0E257FE4F99819083A5
:1003F0008F5F8093BC018093BB0105C061E0CE019B
:1004000001960E945C0181E090E00F90DF91CF9116
:100410000895CF93FC01C48121E020938D01C09306
:10042000AE011092BC011092BB018385682B8FEB4B
:1004300091E00E94DA018091BB01813208F046C050
:100440009091BA019111FCCF92E09093BA0191E0A2
:100450009093B9019FEF90938C0110928B01809340
:100460008A01AEE8B1E02AE631E0F9019E2F921B45
:10047000981718F49D919193F9CF1092690180918A
:100480006901CC0FC82BC09369018091B8018130FC
:1004900061F41092B801809169018093BB00809152
:1004A000BC0083FDF8CF85EC01C085EE8093BC00D5
:1004B0008091BA018230E1F380918C018F3F31F05D
:1004C00080918C01803211F080918C011092BC01DE
:1004D0001092BB0110928D01CF9108950F931F933D
:1004E000CF938C01C62F0E9409026C2F6460C80153
:1004F0000E9409026C2F6B7FC8010E94090283ECE5
:1005000090E00197F1F7CF911F910F910895FF921D
:100510000F931F93CF93DF931F92CDB7DEB78C015C
:10052000F62E962F907F692F642BC80149830E9475
:100530006E0280E1F89EB00111244981642BC8014C
:100540000F90DF91CF911F910F91FF900C946E024D
:1005500041E00E94870281E090E008950E944105F9
:100560001F920F920FB60F9211242F933F938F93E8
:100570009F93AF93BF938091B0019091B101A091EF
:10058000B201B091B3013091AF0123E0230F2D37B9
:1005900020F40196A11DB11D05C026E8230F029687
:1005A000A11DB11D2093AF018093B0019093B101C3
:1005B000A093B201B093B3018091B4019091B501C1
:1005C000A091B601B091B7010196A11DB11D809314
:1005D000B4019093B501A093B601B093B701BF9158
:1005E000AF919F918F913F912F910F900FBE0F90E0
:1005F0001F9018951F920F920FB60F9211242F93F0
:100600003F934F935F936F937F938F939F93AF939A
:10061000BF93EF93FF938091B900887F803609F4F0
:100620009CC068F5883209F45BC090F4803109F40D
:1006300054C038F4882309F4F6C0883009F44DC05A
:10064000F6C0883109F44CC0803209F45DC0EFC0B7
:10065000803409F468C048F4803309F455C0883305
:1006600009F0E5C080938C01D8C0803509F44FC0F3
:10067000883509F45DC0883409F0D9C0D6C08839FE
:1006800009F4C7C0A8F4883709F467C038F488367D
:1006900009F463C0803709F460C0C9C0883809F420
:1006A000B8C0803909F45FC0803809F0C0C05BC0B1
:1006B000803B09F486C038F4803A09F466C0883A71
:1006C00009F47FC0B4C0803C09F4A7C0883C09F499
:1006D000A4C0883B09F48AC0AAC08091690110C0F7
:1006E00090918B0180918A01981770F5E0918B01B0
:1006F00081E08E0F80938B01F0E0E659FE4F808100
:100700008093BB0085EC86C080938C018EC0E09105
:100710008B0181E08E0F80938B018091BB00F0E014
:10072000E659FE4F808390918B0180918A016EC0C3
:10073000E0918B0181E08E0F80938B018091BB0053
:10074000F0E0E659FE4F80838091B90181116DC0C0
:1007500081E08093B80184EA61C083E08093BA01AC
:1007600010926801CFCF80916801803208F051C0AB
:10077000E091680181E08E0F809368018091BB0059
:10078000F0E0E85BFE4F8083BDCF85EC8093BC003A
:100790001092BA0180916801803230F4E0916801D2
:1007A000F0E0E85BFE4F10826091680170E0E0913C
:1007B0004601F091470188E491E0099510926801A3
:1007C00036C084E08093BA01109245011092440132
:1007D000E0914201F091430109958091440181111A
:1007E00005C081E08093440110922201E09145010F
:1007F00081E08E0F80934501F0E0EE5DFE4F808139
:100800008093BB009091450180914401981708F4B2
:1008100079CF85E88093BC000AC085EC8093BC004A
:100820001092BA0104C010928C010E945201FF91F3
:10083000EF91BF91AF919F918F917F916F915F9158
:100840004F913F912F910F900FBE0F901F901895D1
:10085000EFEBF1E01382128288EE93E0A0E0B0E0CB
:1008600084839583A683B78384E091E0918380831A
:10087000EBECF1E01382128284E191E091838083BA
:1008800087E2848380E1808781E08187128688E027
:1008900083870895789484B5826084BD84B581602F
:1008A00084BD85B5826085BD85B5816085BD80913B
:1008B0006E00816080936E001092810080918100B3
:1008C00082608093810080918100816080938100AB
:1008D000809180008160809380008091B10084606D
:1008E0008093B1008091B00081608093B0008091CE
:1008F0007A00846080937A0080917A00826080938D
:100900007A0080917A00816080937A0080917A00E9
:10091000806880937A001092C1001092BE011092FC
:10092000BD011092BC011092BB011092BA0181E08E
:100930008093B9011092B80182E10E94820083E1A4
:100940000E9482008091B9008E7F8093B9008091CF
:10095000B9008D7F8093B90088E48093B80085E466
:100960008093BC001092D0018091D401823018F0A5
:1009700098E09093D0019091D501992339F081307E
:1009800029F48091D00184608093D00162E370E00B
:1009900080E090E00E9418016091D6018BEC91E01C
:1009A0000E94090268EE73E080E090E00E94180166
:1009B00060E38BEC91E00E946E02CBE4D6E4CE01C2
:1009C0000197F1F760E38BEC91E00E946E022197B2
:1009D000F1F760E38BEC91E00E946E0283E592E018
:1009E0000197F1F760E28BEC91E00E946E0260915A
:1009F000D001606240E08BEC91E00E94870284E0CD
:100A00008093D10140E06CE08BEC91E00E94870282
:100A100040E061E08BEC91E00E948702CBE3DFE1F4
:100A2000CE010197F1F782E08093D20140E066E0C9
:100A30008BEC91E00E94870240E062E08BEC91E059
:100A40000E9487022197F1F788E08093D60160E049
:100A50008BEC91E00E94090249E050E068E171E00E
:100A60008BEC91E00E94C800C0E0D0E02097F1F349
:100A70000E940000FBCFEE0FFF1F0590F491E02DC8
:100A8000099481E090E0F8940C944605F894FFCF27
:100A900000000000DA01AA01A2019301850184018E
:100AA00000000000A802C8004A4B554154204545AB
:020AB0004500FF
:00000001FF
