:100000000C9439030C94520F0C9456030C94560321
:100010000C9456030C9456030C9456030C943F0E08
:100020000C9456030C9456030C9456030C945603EC
:100030000C9456030C9456030C9456030C945603DC
:100040000C9456030C9456030C9456030C945603CC
:100050000C945603350D760D760D760D760D760DD6
:10006000E50CEF0CFA0C050D110D1D0D290DEC0E14
:10007000F10EF80EFF0E060F0D0F140F1B0F220FBF
:10008000290F370F370F370F370F370F370F370F4E
:10009000370F370F300F000000000000005F000036
:1000A0000007000700147F147F14242A7F2A1223DC
:1000B0001308646236495522500005030000001CF5
:1000C0002241000041221C00082A1C2A0808083E80
:1000D00008080050300000080808080800606000A8
:1000E0000020100804023E5149453E00427F400076
:1000F00042615149462141454B311814127F102766
:10010000454545393C4A494930017109050336499D
:10011000494936064949291E003636000000563640
:10012000000000081422411414141414412214086D
:10013000000201510906324979413E7E1111117EBA
:100140007F494949363E414141227F4141221C7F3E
:10015000494949417F090901013E414151327F0826
:1001600008087F00417F41002040413F017F081483
:1001700022417F404040407F0204027F7F040810FC
:100180007F3E4141413E7F090909063E4151215EC2
:100190007F09192946464949493101017F01013F3B
:1001A0004040403F1F2040201F7F2018207F6314C5
:1001B0000814630304780403615149454300007F38
:1001C0004141020408102041417F00000402010265
:1001D0000440404040400001020400205454547840
:1001E0007F484444383844444420384444487F38A5
:1001F00054545418087E090102085454543C7F0892
:1002000004047800447D40002040443D00007F10FD
:10021000284400417F40007C041804787C080404D2
:100220007838444444387C14141408081414187C96
:100230007C080404084854545420043F4440203CA3
:100240004040207C1C2040201C3C4030403C442846
:100250001028440C5050503C4464544C4400083620
:10026000410000007F000000413608000030081007
:100270000C00000000000000000000000000000072
:10028000000000000000000000000000000000006E
:10029000000000000000000000000000000000005E
:1002A000000000000000000000000000000000004E
:1002B000000000000000000000000000000000003E
:1002C000000000000000000000000000000000002E
:1002D000000000003FE000000000000000000000FF
:1002E0000000007FFFE000000000000000000000B0
:1002F0000000FFFFFFE00000000000000000000021
:10030000001FFFFFFFE0000000000F0000000000E2
:10031000001FFFFFFFE000003FE0180000000200A8
:10032000001FFFFFFFE000007FC010000000020080
:10033000001FFFFFC1E00001F800300000000200D4
:10034000001FFFCC01E00003C00010173870B78019
:10035000001FE00C01E0000780001819C898C78052
:10036000000F800C01F000070FC00C118C08C200B8
:10037000000F800C00F0000E3FC006108C088200B9
:10038000000F800C00F0001C7F8003108C7882002E
:10039000000F800C00F00018F00001908CE8820043
:1003A000000F800C00F00039E00000908C88820083
:1003B000000FC00400F00031C00000908D88820062
:1003C000000FC00400F000338F8001908D88820000
:1003D000000FC00400F000731F803F108CF8838072
:1003E000000FC00400F000673C001E1080E0818018
:1003F000000FC00403F000663000000000000000A1
:10040000000FC0067FF000667000000000000000D2
:10041000000FC01FFFF00006620000000000000097
:10042000000FC1FFFFF000046600000000000000A4
:100430000007FFFFFFF01E0047000303000000005D
:10044000C007FFFFFEF03E00022003030000000093
:10045000C007FFFFC0F07E00002003030000000083
:10046000C007FFFE00F06000002003030000000052
:10047000C007FF0600F060422270736360C1C2468D
:10048000C00FE00600F0606736FCF3F3F1F3E3CF52
:10049000C00FC00600F0606736FDF3F3F3F3F3CF4F
:1004A000C007C00600F078672621833333303399C4
:1004B000C007C00600F03E6766218333331033184F
:1004C000C007C00600700F2D662183331311F31887
:1004D000C007C0060070032D662183331313F31881
:1004E000C007C0060078033DE62183331313331899
:1004F000C007C00600780339E6218333331233186E
:10050000C007E00600780339E6218333333233181D
:10051000C007E00603F80738C631C3333333730D21
:10052000C007E0067FF87F38C63CF333F3F3F30FE0
:100530008007E007FFF83E18C61CF331E1E1B3077E
:100540000007E01FFFF800000000000000000000AE
:100550000007E1FFFFF000000000000000000000C5
:100560000007FFFFFF000000000000000000000087
:100570000007FFFFF800000000000000000000007E
:100580000007FFFF800000000000000000000000E6
:100590000003FFFC0000000000000000000000005D
:1005A0000003FFE000000000000000000000000069
:1005B0000003FE000000000000000000000000003A
:1005C00000037000000000000000000000000000B8
:1005D0000003000000000000000000000000000018
:1005E000000000000000000000000000000000000B
:1005F00000000000000000000000000000000000FB
:1006000000000000000000000000000000000000EA
:1006100000000000000000000000000000000000DA
:1006200000000000000000000000000000000000CA
:1006300000000000000000000000000000000000BA
:1006400000000000000000000000000000000000AA
:10065000000000000000000000000000000000009A
:10066000000000000000000000000000000000008A
:10067000000011241FBECFE5D8E0DEBFCDBF11E0E2
:10068000A0E6B0E0E2E5F6E202C005900D92A635E4
:10069000B107D9F725E0A6E5B1E001C01D92A43865
:1006A000B207E1F70E94A10F0C9427130C940000ED
:1006B000C29AEFE3F1E03197F1F700C0000084FF48
:1006C00002C0949A01C0949885FF02C0959A01C017
:1006D000959886FF02C0969A01C09698882314F4D4
:1006E000979A01C09798C298EFE3F1E03197F1F73C
:1006F00000C00000C29AEFE3F1E03197F1F700C0CB
:10070000000080FF02C0949A01C0949881FF02C04B
:10071000959A01C0959882FF02C0969A01C096985A
:1007200083FF02C0979A01C09798C2988FE391E027
:100730000197F1F700C00000089581B311BAC09885
:100740008FE391E00197F1F700C00000C19AEFE359
:10075000F1E03197F1F700C00000C29A8FE391E019
:100760000197F1F700C0000080B39AE19A95F1F784
:1007700000C0C298EFE3F1E03197F1F700C000004C
:10078000C29AEFE3F1E03197F1F700C0000090B3B7
:10079000FAE1FA95F1F700C0C298EFE3F1E0319782
:1007A000F1F700C000008823C4F281B3806F81BBE1
:1007B000C0988FE391E00197F1F700C00000C19865
:1007C000EFE3F1E03197F1F700C000000895CF9317
:1007D000DF93D82FC62F0E949D03D13041F4C09AD9
:1007E0008FE391E00197F1F700C0000007C0C098C7
:1007F0008FE391E00197F1F700C00000C1988FE30B
:1008000091E00197F1F700C000008C2F0E9458037F
:10081000DF91CF910895882329F066E280E00E945D
:10082000E703089564E280E00E94E703089581B33E
:10083000806F81BB87B38F6087BBC2988FE391E0E5
:100840000197F1F700C00000C0988FE391E0019795
:10085000F1F700C00000C1988FE391E00197F1F734
:1008600000C00000C39895E09A95F1F70000C39A84
:100870002FEF83EF91E0215080409040E1F700C0DE
:10088000000060E280E00E94E7036CE080E00E94EC
:10089000E70361E080E00E94E70366E080E00E94F9
:1008A000E70362E080E00E94E70381E00E940B041E
:1008B00008950F931F93CF93DF9340E050E0C0E083
:1008C000D0E000E010E020C0F901E40FF51FE80FD0
:1008D000F91FE491D9010024B695A7950794B69520
:1008E000A7950794BA2FA02DA60FB71FA359BE4FE7
:1008F000EC932F5F3F4F2031310531F72196405F58
:100900005F4FC034D10521F0BE01202F312FDCCF45
:10091000DF91CF911F910F910895CF93C82F60322F
:1009200050F4606880E00E94E7036C2F606880E00C
:100930000E94E7030AC06052606880E00E94E703FB
:100940006C2F686880E00E94E703CF9108959F9222
:10095000AF92BF92CF92DF92EF92FF920F931F93CD
:10096000CF93DF9300D000D01F92CDB7DEB750E019
:1009700040525109FA01EE0FFF1FEE0FFF1F4E0FFD
:100980005F1FFA01EA56FF4FE491ED83FA01E95641
:10099000FF4FE491EC83FA01E856FF4FE491EB83BB
:1009A000FA01E756FF4FE491EA83FA01E656FF4F5A
:1009B0004491498300E010E0EE24E394F12C0F2EE3
:1009C000F3E09F2EF02DA12CB12CC62ED12C90E45B
:1009D000899FB001112422C04D9150E04823592332
:1009E000452B41F0A7010E2E02C0440F551F0A945B
:1009F000E2F7342B3196E830F10571F72F3F09F01B
:100A00003095F801EC0DFD1DE60FF71FE359FE4F81
:100A100030830F5F1F4F0830110569F0C701002EAA
:100A200002C0880F991F0A94E2F7DE011196E92DA2
:100A3000FA2D3B2DD1CF0F900F900F900F900F906C
:100A4000DF91CF911F910F91FF90EF90DF90CF90AA
:100A5000BF90AF909F900895EF92FF920F931F93D6
:100A6000CF93DF93D82FF62EE22EFA0101900020CB
:100A7000E9F73197CE2FC41B61F08A01F80141914B
:100A80008F012E2D6F2D8D2F0E94A704DF5FC15087
:100A9000A9F7DF91CF911F910F91FF90EF900895EB
:100AA00040E050E070E060E09FEF2BC0882381F0D1
:100AB000F9010024F695E7950794F695E7950794D4
:100AC000FE2FE02DE40FF51FE359FE4F90830FC07A
:100AD000F9010024F695E7950794F695E7950794B4
:100AE000FE2FE02DE40FF51FE359FE4F10822F5F1C
:100AF0003F4F20313105D1F64F5F5F4F40345105F4
:100B000019F0272F362FD2CF0895482F50E0DA0161
:100B100018964A175B07E4F00895F9010024F6954A
:100B2000E7950794F695E7950794FE2FE02DE40FDF
:100B3000F51FE359FE4F60832F5F3F4F2031310592
:100B400061F78F5F482F50E04A175B071CF008954C
:100B500070E090E0272F392FE0CF282F30E020954C
:100B6000309527703327E1E0F0E0DF0102C0AA0FE3
:100B7000BB1F2A95E2F79D018695869586954F3F86
:100B800061F4B0E48B9FF0011124E60FF11DE359ED
:100B9000FE4F8081282B2083089590E4899FF001E7
:100BA0001124E60FF11DE359FE4F80812095282383
:100BB000208308950F931F93CF93DF93C82FD62FD1
:100BC000142F022F681710F4C62FD82F402F612F33
:100BD0008C2F0E94AD05CF5FDC17C0F7DF91CF915E
:100BE0001F910F9108950F931F93CF93DF93182FA9
:100BF000C62FD42F022F461710F4C42FD62F402F04
:100C00006C2F812F0E94AD05CF5FDC17C0F7DF91FD
:100C1000CF911F910F910895BF92CF92DF92EF92E3
:100C2000FF920F931F93CF93DF9300E010E0B12C5E
:100C3000C12CEE24E394F02E602F80E00E948D04FE
:100C4000CB2DDC2DD12C8C2F9FE39F1530F4D110B0
:100C500004C06F2D0E948D04DE2CFE010024F69549
:100C6000E7950794F695E7950794FE2FE02DE00FA2
:100C7000F11FE359FE4F60818E2D0E94E7032196FC
:100C8000C031D10501F70F5F1F4F0034110599F6F0
:100C9000DF91CF911F910F91FF90EF90DF90CF9058
:100CA000BF900895E199FECF9FBB8EBB6DBBE29ACA
:100CB000E19A0895EF92FF920F931F93CF93DF93E2
:100CC0008C017B01EA01209751F0F70161917F01CE
:100CD000C8010E9452060F5F1F4F2197B1F7DF91A5
:100CE000CF911F910F91FF90EF90089581E080B90F
:100CF00081B1836081B986B7846086BF089584EA34
:100D000086BF06B607FEFDCF089584E986BF06B606
:100D100004FCFDCF089583B984E886BF06B607FEBC
:100D2000FDCF81B1887F883159F081B1887F8832C9
:100D300049F091B1987F81E0903429F080E00895E6
:100D400081E0089581E00895FC01662321F096B7C3
:100D5000906496BF03C096B79F7B96BF96B7906886
:100D600096BF06B607FEFDCF91B1987F983521F06A
:100D700091B1987F903521F483B1808381E008950B
:100D800080E0089587B3806B87BBBE98C49A81E5E5
:100D90008DB908958FB9779BFECF0895779BFECFCD
:100DA0008FB10895C4980E94CA068AE68A95F1F721
:100DB00000C00E94CE06C49A08958FE08ABB8FEFD0
:100DC0008BBB08958EEF8BBB8AE08A95F1F700C04C
:100DD00089B3807F803E41F0803D41F0803B41F00F
:100DE000803741F481E407C081E305C082E303C09A
:100DF00083E301C080E29DEF9BBB9AE09A95F1F7F7
:100E000000C099B3907F903E41F0903D41F0903BFF
:100E100041F0903739F482E405C084E303C085E3F0
:100E200001C086E39BEF9BBB9AE09A95F1F700C067
:100E300099B3907F903E41F0903D41F0903B41F05E
:100E4000903739F483E405C087E303C088E301C029
:100E500089E397EF9BBB9AE09A95F1F700C099B3AD
:100E6000907F903E41F0903D41F0903B41F09037B3
:100E700039F484E408958AE2089580E3089583E2D2
:100E80000895CF93DF931F92CDB7DEB789836E307D
:100E900009F118F46D3039F061C06F3091F16031B3
:100EA00009F446C05BC089818093590141E050E05C
:100EB000BE016F5F7F4F80E090E00E945A068981FB
:100EC000813021F481E60E94D20648C082E60E9469
:100ED000D20644C089818093580141E050E0BE01B0
:100EE0006F5F7F4F81E090E00E945A0689818130D8
:100EF00021F483E60E94D20631C084E60E94D20625
:100F00002DC089818093570141E050E0BE016F5FA1
:100F10007F4F82E090E00E945A068981813021F45F
:100F200085E60E94D2061AC086E60E94D20616C046
:100F300089818093560141E050E0BE016F5F7F4F91
:100F400083E090E00E945A068981813021F487E68F
:100F50000E94D20603C088E60E94D2060F90DF915D
:100F6000CF910895F8948EB58A608EBD89B780615F
:100F700089BF80ED97E09BBD8ABD1DBC1CBC8BB7B3
:100F800080648BBF85B7826085BF7894089581E7C0
:100F900092E00E9459042FEF45E650E067E384E0B9
:100FA0000E942C0581E080935A01089540916901C7
:100FB00050916A0160916B0170916C014D315C4000
:100FC0006105710528F18F3F89F460915B01709193
:100FD0005C016F5F7F4F660F862F880F880F680F49
:100FE0002FEF4EE381E00E94A7040895811110C005
:100FF00060915B0170915C016F5F7F4F660F862F80
:10100000880F880F680F2FEF40E281E00E94A7044D
:1010100008950F931F93CF93DF93082F20E04FE69F
:1010200050E069E184E00E942C0520E042E750E0B6
:1010300069E189E00E942C05D2E319E10BC040E090
:101040006C2F8D2F0E94AD05CF5FC332C1F7DF5FDC
:10105000D63411F0C12FF3CF013079F0DCE31AE17F
:1010600022C04FEF6C2F8D2F0E94AD05CF5FC23293
:10107000C1F7DF5FDC3319F404C0D3E31AE1C12FF9
:10108000F0CF20E04EE366E288E00E94A70413C0A0
:101090004FEF6C2F8D2F0E94AD05CF5FC232C1F78D
:1010A000DF5FD53411F0C12FF3CF20E04CE366E2CF
:1010B00087E00E94A704DF91CF911F910F910895BF
:1010C000242F95E0980F462F692F0E94DA05089586
:1010D00080E00E9450052FEF40E060E880E00E9431
:1010E000DA052FEF4FE360E880E00E94DA052FEF8A
:1010F00040E460E080E00E94F3052FEF40E460E010
:101100008FE70E94F3056FEF81E00E948505089547
:1011100080915A01823009F481C018F4813041F085
:101120005FC1833009F4EBC0843009F452C158C167
:101130008FEF0E94D607809161008234E1F48091A4
:10114000600090E020915B0130915C012817390725
:1011500028F090935C0180935B0109C080915B0152
:1011600090915C01019690935C0180935B018FEFFD
:101170000E94D60735C1809161008134C1F480910D
:101180005B0190915C01892B29F410925C01109213
:101190005B0109C080915B0190915C010197909384
:1011A0005C0180935B018FEF0E94D60719C180918B
:1011B0006100833209F014C180915B0190915C0160
:1011C0008130910579F030F082309105A9F00397D4
:1011D000E9F006C182E080935A0110925C011092FE
:1011E0005B01FEC083E080935A0181E090E0909320
:1011F0005C0180935B01F4C086E080935A018FEF1D
:101200000E94D60784E080937F05EAC085E0809342
:101210005A0110925C0110925B01E2C08FEF0E94B4
:10122000D607809161008234E1F48091600090E003
:1012300020915B0130915C012817390728F09093C9
:101240005C0180935B0109C080915B0190915C011E
:10125000019690935C0180935B018FEF0E94D6070B
:10126000BFC0809161008134C1F480915B01909195
:101270005C01892B29F410925C0110925B0109C07A
:1012800080915B0190915C01019790935C01809348
:101290005B018FEF0E94D607A3C0809161008A3264
:1012A00021F481E080935A019BC0809161008332D8
:1012B00009F096C086E080935A0180915B0190917D
:1012C0005C018130910559F030F08230910559F080
:1012D000039769F00FC08DE080937F050BC08EE00F
:1012E00080937F0507C08FE080937F0503C080E176
:1012F00080937F0510925C0110925B0171C08FEFAB
:101300000E94D607809161008234E1F480916000F0
:1013100090E020915B0130915C012817390728F09B
:1013200090935C0180935B0109C080915B01909177
:101330005C01019690935C0180935B018FEF0E94AA
:10134000D6074EC0809161008134C1F480915B0169
:1013500090915C01892B29F410925C0110925B0141
:1013600009C080915B0190915C01019790935C01B1
:1013700080935B018FEF0E94D60732C0809161009D
:101380008A3221F481E080935A012AC08091610061
:10139000833231F586E080935A0180915B01909110
:1013A0005C018230910549F08330910551F001973D
:1013B00059F48AE080937F0507C08BE080937F0516
:1013C00003C08CE080937F0510925C0110925B015A
:1013D00007C0809161008A3219F481E080935A013C
:1013E00080915A018630B9F580917F058A3041F0AD
:1013F00018F4843049F108958D50843048F00895F0
:10140000809161008A3239F583E080935A01089512
:1014100080916100833431F460917F0581E00E9406
:101420004107089580916100843431F460917F0513
:1014300080E00E9441070895809161008A3259F44A
:1014400082E080935A010895809161008A3219F4F4
:1014500081E080935A010895BF92CF92DF92EF927C
:10146000FF920F931F93CF93DF937C01B62E00E082
:1014700010E0C0E0D0E0CC24CA94DC2CC2C02091A3
:101480008005309181053323D4F3C130D105C1F0FB
:101490001CF4209741F052C0C230D10559F1C3303D
:1014A000D105D1F14BC000918005109181058FE0ED
:1014B000B81609F44CC080E1B81609F473C09CC09A
:1014C000C801880F991F000F111F000F111F000F77
:1014D000111F080F191F8091800590918105080F39
:1014E000191F8FE0B81609F44AC080E1B81609F454
:1014F00059C082C0C801880F991F000F111F000F2B
:10150000111F000F111F080F191F80918005909166
:101510008105080F191F80C0C801880F991F000F8F
:10152000111F000F111F000F111F080F191F8091AD
:10153000800590918105080F191F6EC08FE0B816C5
:1015400021F080E1B81671F157C02097A9F480917D
:101550008005909181054AE06CE775E00E94F212E7
:101560000E940C0620E04CE755E061E285E00E9415
:101570002C050E940C0640C0C130D105E9F58091D0
:101580008005909181054AE062E875E00E94F212C0
:1015900020E042E855E061E286E00E942C050E94CE
:1015A0000C062AC0209799F48091800590918105BE
:1015B0004AE063E875E00E94F21220E043E855E05B
:1015C00061E288E00E942C050E940C0615C0C13023
:1015D000D10591F480918005909181054AE06EE7F4
:1015E00075E00E94F21220E04EE755E061E289E0EA
:1015F0000E942C050E940C06D0928105C0928005A5
:101600002196CE15DF0564F4209180053091810587
:1016100033230CF434CF39CF80E1B812EDCFC2CFF1
:10162000C801DF91CF911F910F91FF90EF90DF9054
:10163000CF90BF9008950F931F93CF93DF93809126
:101640005A01863009F066C001E010E020E040E772
:1016500055E06FE083E00E942C0540E069E288E2FB
:101660000E94600840E069E280E30E94600840E078
:1016700069E280E40E94600840E069E288E40E9438
:1016800060080E940C06C02FD12F01C02196CE0108
:10169000019719F00197E9F02BC020E040E755E0F1
:1016A0006FE083E00E942C056FE082E090E00E94F2
:1016B0002C0A8D3091053CF08C500E94691081E01D
:1016C0000E948B10E3CF0E94691080E00E948B1073
:1016D000DDCF20E040E755E06FE083E00E942C057D
:1016E00060E182E090E00E942C0A0E94531003C047
:1016F000C230D1055CF220E046E750E069E284E0C8
:101700000E942C0581E080935A0180915A01863015
:1017100009F49CCFDF91CF911F910F910895FF9213
:101720000F931F93CF93DF9390915A01963009F056
:1017300088C0182FFF24F39400E020E040E755E034
:101740006FE083E00E942C0540E069E288E20E949D
:10175000600840E069E280E30E94600840E069E2DE
:1017600080E40E94600840E069E288E40E9460082A
:101770000E940C06CF2DD02F01C021969E01215032
:10178000310921F02130310529F148C01B3081F4A5
:101790006FE082E090E00E942C0A80936D054F2D4F
:1017A000502F6DE675E085E090E00E945A06E5CF87
:1017B0001C3019F76FE082E090E00E942C0A8093C1
:1017C0006E054F2D502F6EE675E086E090E00E948A
:1017D0005A06D3CF1B3081F460E182E090E00E9492
:1017E0002C0A80936F054F2D502F6FE675E087E030
:1017F00090E00E945A0616C01C30A1F460E182E01D
:1018000090E00E942C0A80937D054F2D502F6DE7AC
:1018100075E088E090E00E945A0604C0C230D1050D
:101820000CF4ABCF20E040E850E069E283E00E9496
:101830002C0583E080935A0180915A01863009F487
:101840007CCFDF91CF911F910F91FF9008954F9220
:101850005F926F927F928F929F92AF92BF92CF9240
:10186000DF92EF92FF920F931F93CF93DF937C0150
:101870004A015B018901CB01BA010E9475112B015C
:101880003C014AE0B701C2010E94F2121016110693
:101890000CF059C0F7018081882341F0C7010196FF
:1018A000EC01019628812111FBCF01C0E7016E01F7
:1018B000FFEFCF1ADF0A8EE2888320E030E0A90133
:1018C000C501B4010E947011882364F5B7FAB09481
:1018D000B7F8B0947094609450944094411C511C9B
:1018E000611C711C1FC020E030E040E251E40E9406
:1018F0005D122B013C010E94751120E3260FF501BA
:1019000021935F010E94AD119B01AC01C301B201A3
:101910000E940311AC16BD0631F7F601E00FF11F6E
:10192000108211C0C301B2010E94AD119B01AC0134
:10193000C501B4010E940311560198012F5F3F4F6A
:10194000C20FD31FD0CFC701DF91CF911F910F914D
:10195000FF90EF90DF90CF90BF90AF909F908F90CF
:101960007F906F905F904F900895FF920F931F9319
:10197000CF93DF93CDB7DEB72A970FB6F894DEBFCB
:101980000FBECDBF80E00E94D60707E10F2EFAE020
:10199000FF2EF02D0BC04FEF612F802F0E94AD0561
:1019A0001F5F1833C1F70F5F003711F01F2DF3CF02
:1019B00080917F0590E0FC013497ED30F10508F04F
:1019C00095C0E65DFF4F0C94EC1220E04BE850E030
:1019D00069E185E00E942C050E941B0B87C020E076
:1019E0004BE850E069E185E00E942C058BE00E9405
:1019F0008F0B7CC020E04BE850E069E185E00E945D
:101A00002C058CE00E948F0B71C020E041E950E072
:101A10006FE085E00E942C05809159010E94090821
:101A200065C020E049E950E06FE085E00E942C05A8
:101A3000809158010E94090859C020E041EA50E015
:101A40006FE084E00E942C05809157010E940908F4
:101A50004DC020E04AEA50E06FE084E00E942C058F
:101A6000809156010E94090841C040916101509146
:101A70006201609163017091640122E030E0CE0167
:101A800001960E94270C40915D0150915E0160918A
:101A90005F017091600122E030E0CE0106960E9465
:101AA000270C20E043EB50E06FE083E00E942C0520
:101AB00020E04FEB50E069E18AE00E942C0520E035
:101AC000AE014A5F5F4F69E184E00E942C0520E08F
:101AD000AE014F5F5F4F63E284E00E942C0520E07F
:101AE00040EC50E063E28AE00E942C052A960FB693
:101AF000F894DEBF0FBECDBFDF91CF911F910F9144
:101B0000FF9008950E9488088091690190916A0170
:101B1000A0916B01B0916C01893B9B40A105B1057F
:101B200008F4ACC08FEF0E94D60780915A01823032
:101B3000F1F118F4813041F00895833009F46AC05E
:101B4000863009F499C0089580915B0190915C0101
:101B5000059708F093C00E94680820E042EC50E02E
:101B600061E082E00E942C0520E040E361E08FE02C
:101B70000E94A7042FEF48E451E06AE082E00E944F
:101B80002C052FEF42E451E063E182E00E942C0536
:101B90002FEF45E351E06DE182E00E942C052FEF2D
:101BA0004AE251E067E282E00E942C0508958091AC
:101BB0005B0190915C01059708F060C00E94680885
:101BC00020E04CEC50E061E082E00E942C0520E037
:101BD00041E361E08FE00E94A7042FEF41E251E072
:101BE0006AE082E00E942C052FEF48E151E063E1BA
:101BF00082E00E942C052FEF4EE051E06DE182E083
:101C00000E942C052FEF44E051E067E282E00E9441
:101C10002C05089580915B0190915C01059770F50A
:101C20000E94680820E048ED50E061E082E00E94F8
:101C30002C0520E042E361E08FE00E94A7042FEF33
:101C400040E755E06AE082E00E942C052FEF4BEF61
:101C500050E063E182E00E942C052FEF4FEE50E050
:101C60006DE182E00E942C052FEF43EE50E067E229
:101C700082E00E942C0508950E94B50C08951F92E1
:101C80000F920FB60F921124CF92DF92EF92FF9234
:101C90002F933F934F935F936F937F938F939F9374
:101CA000AF93BF93EF93FF938091690190916A0185
:101CB000A0916B01B0916C010196A11DB11D8093A3
:101CC000690190936A01A0936B01B0936C010E942B
:101CD000E206809361006091690170916A018091D0
:101CE0006B0190916C0125EA30E040E050E00E94E9
:101CF000CA12672B682B692B11F40E948808609127
:101D0000690170916A0180916B0190916C0128EEDC
:101D100033E040E050E00E94CA12672B682B692B29
:101D200009F04CC060916501709166018091670176
:101D300090916801C0906101D0906201E0906301D0
:101D4000F090640120E13EE040E050E00E94CA12C1
:101D5000CA01B9010E94AB11A70196010E940411AA
:101D600060936101709362018093630190936401B9
:101D700060916501709166018091670190916801A1
:101D8000C0905D01D0905E01E0905F01F090600135
:101D900020E83EEE46E350E00E94CA12CA01B901B3
:101DA0000E94AB11A70196010E94041160935D018E
:101DB00070935E0180935F0190936001E0916100F8
:101DC0008E2F90E0FC01F097E431F10508F04FC050
:101DD000E95CFF4F0C94EC12109281051092800583
:101DE0004CC081E090E0909381058093800545C0D0
:101DF00082E090E090938105809380053EC083E06F
:101E000090E0909381058093800537C084E090E056
:101E1000909381058093800530C085E090E0909399
:101E200081058093800529C086E090E0909381052C
:101E30008093800522C087E090E090938105809395
:101E400080051BC088E090E0909381058093800519
:101E500014C089E090E090938105809380050DC0C7
:101E60008AE090E0909381058093800506C08FEF13
:101E70009FEF9093810580938005FF91EF91BF9133
:101E8000AF919F918F917F916F915F914F913F9112
:101E90002F91FF90EF90DF90CF900F900FBE0F909B
:101EA0001F9018951F920F920FB60F9211242F9327
:101EB0003F934F935F936F937F938F939F93AF93D2
:101EC000BF93EF93FF938091650190916601A0917C
:101ED0006701B09168010196A11DB11D8093650154
:101EE00090936601A0936701B093680142E050E0CF
:101EF00065E671E089E090E00E945A06FF91EF915B
:101F0000BF91AF919F918F917F916F915F914F9111
:101F10003F912F910F900FBE0F901F9018950E9428
:101F200076060E94C2060E9408100E9417040E94B2
:101F3000B2070E94C7070E94DD0681E080935A0124
:101F400008950E948F0FA39A80E795E00E94AA103F
:101F50000E94820D81E60E94D206883C09F4AB9A69
:101F60000E940C06F1CF0F931F93CF93C82F8B01C4
:101F70000E947F0680ED90E00E948B068823C9F0C6
:101F80008C2F90E00E948B068823A9F00E947F0688
:101F900081ED90E00E948B06882379F060E070E08C
:101FA000C8010E94A406882351F00E94850681E0A2
:101FB00007C080E005C080E003C080E001C080E091
:101FC000CF911F910F910895CF93DF93C82FD62FF4
:101FD0000E947F0680ED90E00E948B06882381F0AE
:101FE0008C2F90E00E948B06882361F08D2F90E06B
:101FF0000E948B06882341F00E94850681E005C07F
:1020000080E003C080E001C080E0DF91CF910895BF
:10201000CF93DF931F92CDB7DEB70E947606BE0145
:102020006F5F7F4F80E00E94B30F982F8823E1F00D
:1020300069816F77698380E00E94E40F982F88237D
:1020400099F0BE016F5F7F4F82E00E94B30F982F1F
:10205000882351F069816064698382E00E94E40F03
:1020600091E0811101C090E0892F0F90DF91CF9115
:102070000895CF93DF931F92CDB7DEB7BE016F5F98
:102080007F4F82E00E94B30F8981807290E0959526
:1020900087959595879595958795959587950F90B3
:1020A000DF91CF9108959DEC899F912D11249695F4
:1020B0009695969520E1929FB0011124990F292FB2
:1020C000220F220F920F891B682B81E00E94E40FE0
:1020D0000895CF93C82F0E9439109DECC99F912D70
:1020E000112496959695969540E1949F9001112420
:1020F000990F392F330F330F930FC91B2C2B8111DD
:1021000003C0622F606402C0622F606682E00E949A
:10211000E40FCF9108951F93CF93DF931F92CDB714
:10212000DEB7182FBE016F5F7F4F82E00E94B30FB2
:10213000112321F089818062898303C089818F7D89
:102140008983698182E00E94E40F0F90DF91CF9133
:102150001F9108950F931F93CF93DF931F92CDB7D5
:10216000DEB78C01BE016F5F7F4F80E00E94B30F2E
:10217000882309F442C0F80112868DE481878981A1
:10218000982F9F70905D9783807782958F70805D88
:1021900086838AE38583BE016F5F7F4F81E00E9463
:1021A000B30F882351F18981982F9F70905DF801BA
:1021B0009483807782958F70805D83838AE38283A6
:1021C000BE016F5F7F4F82E00E94B30F8823A9F0AA
:1021D0008981982F9F70905DF801918384FB9927E6
:1021E00090F9905D908385FF04C080E5808781E051
:1021F00004C081E4F801808781E00F90DF91CF91E6
:102200001F910F9108955058BB27AA270E941B11B8
:102210000C9423120E94151238F00E941C1220F018
:1022200039F49F3F19F426F40C9412120EF4E09541
:10223000E7FB0C940C12E92F0E94341258F3BA17E2
:10224000620773078407950720F079F4A6F50C94CC
:1022500056120EF4E0950B2EBA2FA02D0B01B901EA
:1022600090010C01CA01A0011124FF27591B99F00C
:10227000593F50F4503E68F11A16F040A22F232F18
:10228000342F4427585FF3CF469537952795A79568
:10229000F0405395C9F77EF41F16BA0B620B730B0F
:1022A000840BBAF09150A1F0FF0FBB1F661F771F80
:1022B000881FC2F70EC0BA0F621F731F841F48F435
:1022C000879577956795B795F7959E3F08F0B0CFBE
:1022D0009395880F08F09927EE0F979587950895A5
:1022E0000E94E81108F481E008950E947C1168942E
:1022F000B1110C94571208950E943C1288F09F5718
:1023000098F0B92F9927B751B0F0E1F0660F771F19
:10231000881F991F1AF0BA95C9F714C0B13091F00F
:102320000E945612B1E008950C945612672F782F30
:102330008827B85F39F0B93FCCF3869577956795D4
:10234000B395D9F73EF490958095709561957F4F40
:102350008F4F9F4F0895E89409C097FB3EF49095E6
:102360008095709561957F4F8F4F9F4F9923A9F06E
:10237000F92F96E9BB279395F695879577956795FD
:10238000B795F111F8CFFAF4BB0F11F460FF1BC041
:102390006F5F7F4F8F4F9F4F16C0882311F096E9D4
:1023A00011C0772321F09EE8872F762F05C0662382
:1023B00071F096E8862F70E060E02AF09A95660F3B
:1023C000771F881FDAF7880F9695879597F90895F4
:1023D000990F0008550FAA0BE0E8FEEF1616170636
:1023E000E807F907C0F012161306E407F50798F09E
:1023F000621B730B840B950B39F40A2661F0232BB7
:10240000242B252B21F408950A2609F4A140A69532
:102410008FEF811D811D089597F99F6780E870E017
:1024200060E008959FEF80EC089500240A9416164A
:10243000170618060906089500240A9412161306B2
:10244000140605060895092E0394000C11F4882340
:1024500052F0BB0F40F4BF2B11F460FF04C06F5F5C
:102460007F4F8F4F9F4F089557FD9058440F551F32
:1024700059F05F3F71F04795880F97FB991F61F006
:102480009F3F79F087950895121613061406551F7D
:10249000F2CF4695F1DF08C0161617061806991FE9
:1024A000F1CF86957105610508940895E894BB27DE
:1024B00066277727CB0197F908950E9470120C9434
:1024C00023120E94151238F00E941C1220F095234E
:1024D00011F00C940C120C94121211240C9457123B
:1024E0000E94341270F3959FC1F3950F50E0551F71
:1024F000629FF001729FBB27F00DB11D639FAA2759
:10250000F00DB11DAA1F649F6627B00DA11D661FA7
:10251000829F2227B00DA11D621F739FB00DA11DC8
:10252000621F839FA00D611D221F749F3327A00D82
:10253000611D231F849F600D211D822F762F6A2F1E
:1025400011249F5750409AF0F1F088234AF0EE0F83
:10255000FF1FBB1F661F771F881F91505040A9F7B0
:102560009E3F510580F00C940C120C9457125F3F63
:10257000E4F3983ED4F3869577956795B795F795EC
:10258000E7959F5FC1F7FE2B880F911D9695879564
:1025900097F90895A1E21A2EAA1BBB1BFD010DC0DD
:1025A000AA1FBB1FEE1FFF1FA217B307E407F50703
:1025B00020F0A21BB30BE40BF50B661F771F881FDF
:1025C000991F1A9469F760957095809590959B0175
:1025D000AC01BD01CF010895EE0FFF1F0590F491EE
:1025E000E02D0994BB274A3031F4992322F4BDE24F
:1025F000909581959F4F0C94FE12BB27FB015527A8
:10260000AA27880F991FAA1FA41710F0A41B83954F
:102610005051B9F7A05DAA3308F0A95DA1930097C6
:1026200079F7B111B1931192CB010C941713DC011E
:10263000FC01672F71917723E1F7329704C07C91F9
:102640006D9370836291AE17BF07C8F30895F89435
:02265000FFCFBA
:102652000332353500546563682032303137004F1C
:102662004E004F46460054494D45205345542100E3
:10267200414C41524D31205345540048483A4D4D4A
:10268200004C696768747331004C6967687473320F
:1026920000536F636B6574733100536F636B6574C2
:1026A200733200456E657267792055736564004B1D
:1026B20057004D41494E2D4D454E550053574954F3
:1026C20043482D4D454E550054494D45522D4D45DB
:1026D2004E55005365742054696D65722032005363
:1026E20065742054696D65722031005365742054FD
:1026F200696D6500536F636B657473203200536FAD
:10270200636B6574732031004C696768747320329F
:10271200004C6967687473203100436F6E6E6563A5
:1027220074696F6E00456E65726779204D657465D8
:10273200720054696D657200537769746368204F43
:062742004E2F4F46460039
:00000001FF
