S01200004C43445F4B65797061642E7372656382
S11300000C942A000C943F000C943F000C943F0085
S11300100C943F000C943F000C943F000C943F0060
S11300200C943F000C943F000C943F000C943F0050
S11300300C943F000C943F000C943F000C943F0040
S11300400C943F000C943F000C943F000C943F0030
S11300500C943F0011241FBECFE5D8E0DEBFCDBF16
S113006010E0A0E6B0E0E8E3F4E002C005900D92F1
S1130070A839B107D9F70E948D010C941A020C9487
S11300800000982F907F92BB909A929AE9EFF0E04B
S11300903197F1F700C0000092989098E9EFF0E0F2
S11300A03197F1F700C00000F0E18F9FC0011124E7
S11300B082BB909A929A89EF90E00197F1F700C081
S11300C0000092989098E9EFF0E03197F1F700C0C2
S11300D000000895982F907F92BB929AE9EFF0E088
S11300E03197F1F700C000009298E9EFF0E0319702
S11300F0F1F700C00000F0E18F9FC001112482BB22
S1130100929A89EF90E00197F1F700C0000092986D
S1130110E9EFF0E03197F1F700C00000089585EAB7
S11301209EE00197F1F700C0000012BA12BA81B341
S1130130806F81BB81B3876081BB80E382BB929A6D
S1130140E9EFF0E03197F1F700C000009298E9EF91
S1130150F0E03197F1F700C0000082BB929A89EF7A
S113016090E00197F1F700C000009298E9EFF0E009
S11301703197F1F700C0000080E282BB929A89EFC8
S113018090E00197F1F700C000009298E9EFF0E0E9
S11301903197F1F700C0000088E20E946A008CE009
S11301A00E946A00089581E00E946A000895623006
S11301B031F0633031F0613029F4805C03C08C5E2F
S11301C001C08C5A80680E946A000895CF92DF9221
S11301D0EF92FF920F931F93CF93DF936C01862FBF
S11301E0642F0E94D700F60101900020E9F73197AF
S11301F08F010C191D09F02E88E0801718F40111E5
S11302000EC02CC0002369F1EC2CCC2DDD2D89917E
S11302100E9441008C2F8E198F15C8F322C0EC2C3C
S1130220CC2DDD2D89910E9441008C2F8E198F15C4
S1130230C8F3EFEFE00FF0E03196E601CE0FDF1FD9
S113024080EC0E946A0080E18F1558F410E18991D6
S11302500E9441001F5FF112FACF03C080EC0E949C
S11302606A00DF91CF911F910F91FF90EF90DF9083
S1130270CF9008958EEF8BBB00C089B3807F803E02
S113028041F0803D41F0803B41F0803741F48CE007
S113029007C081E005C082E003C083E001C08FEFA6
S11302A09DEF9BBB00C099B3907F903E41F0903D81
S11302B041F0903B41F0903739F48DE005C084E083
S11302C003C085E001C086E09BEF9BBB00C099B3EF
S11302D0907F903E41F0903D41F0903B41F090374B
S11302E039F48EE005C087E003C088E001C089E0EE
S11302F097EF9BBB00C099B3907F903E41F0903D37
S113030041F0903B41F0903739F48FE008958AE052
S1130310089580E008958BE00895CF93DF9300D093
S113032000D01F92CDB7DEB70E948F000E94D30089
S11303308FE08ABB8FEF8BBBE12CC12CD12CFF2427
S1130340F39447C040E060E080E690E00E94E6005D
S11303500C2D1D2D0E943A018F3F81F0E1E0F0E069
S1130360EC0FFD1FE00FF11F805D80830F5F1F4FB7
S11303704F2D602F80E790E00E94E6008FE493EC1D
S11303800197F1F700C00000043011051CF31D8231
S1130390CE0101960E94ED01892B51F00E94D300F9
S11303A040E060E083E790E00E94E600EF2C11C09B
S11303B00E94D30040E060E082E890E00E94E60002
S11303C09FE72AE186E0915020408040E1F700C099
S11303D00000EE2009F4B6CFFCCFCF93DF9300D01A
S11303E000D01F92CDB7DEB725E0E2E9F0E0DE01F0
S11303F0119601900D922A95E1F7BE016F5F7F4F30
S11304000E94110221E030E0892B11F020E030E05D
S1130410C9010F900F900F900F900F90DF91CF9123
S11304200895FB01DC018D91019080190110D9F32D
S10B0430990B0895F894FFCF25
S1130438456E7465722050617373776F72643A0005
S11304482A3A004C6F6720696E207375636365737D
S1130458730057726F6E672070617373776F72647D
S10B046821003132333400009D
S9030000FC
